:060000000A128A1100291A
:10000800B400030EB5000B180E280C1841280B1964
:100018004728802803138312061CAF0A0B101528E3
:100028008028031383122F08003C031D1D28051781
:100038008028031383122F08013C031D24288028DD
:10004800031383122F08023C031D2B288028031357
:1000580083122F08033C031D3228802803138312C0
:100068002F08043C031D39288028031383122F0806
:10007800053C031D3928AF0180280C107C308E0008
:10008800E1308F00A10A03138312DC3081000B11C9
:10009800A00A4E28031383123008003C031D592878
:1000A80001308500B00A0B1080283008013C031D80
:1000B800622802308500B00A0B1080283008023C04
:1000C80082073F3406345B344F3466346D347D34F4
:1000D80007347F346F3477347C3439345E34793480
:1000E8007134043C031D7D2810308500B00A0B10C4
:1000F800802820308500B0010000350E8300B40E42
:04010800340E0900A8
:10020000031383160F138F160F120F140317831681
:10021000880189010313831687018501880106146B
:1002200086140615861506160313831615149514E1
:100230001515951515160313831681138112811157
:10024000011581140110031383128B178B168B1564
:100250000B110B100313831616149614161596150E
:1002600016160313831206080B10031383160C14BF
:10027000031383120C1003138312901610169010A0
:100280001014031383127C308E00E1308F000313AF
:100290008312870188018501B601B001DC3081003D
:1002A0002C088800A100A200A400A300A500A600BD
:1002B0000F30A105F030A205A20E0F30A405F030DA
:1002C000A305A30E0F30A505F030A605A60E310834
:1002D0008800A700A800A900AA000F30A705F030E9
:1002E000A805A80E0F30A905F030AA05AA0EA70A86
:1002F000AA0A7A293008031D852921080A128A11C1
:1003000064200A128A118800C1293008013C031DAB
:10031000912922080A128A1164200A128A1188007F
:10032000C1293008023C031D9D2924080A128A11A4
:1003300064200A128A118800C1293008033C031D79
:10034000A92923080A128A1164200A128A11880036
:10035000C1293008043C031DB52925080A128A1159
:1003600064200A128A118800C1293008053C031D47
:10037000792926080A128A1164200A128A11880033
:10038000C12921080A3C031D7929A101A20AC82913
:100390002208063C031D7929A201A40ACF292408BA
:1003A0000A3C031D7929A401A30AD6292308063C87
:1003B000031D7929A301A50ADD2925080A3C031D8F
:1003C0007929A501A60AE4292608023C031D7929FA
:1003D0002508043C031D7929A601A70AEF2927084F
:1003E0000A3C031D7929A701A80AF629B308003C95
:1003F000031D062A2808033C031D79292708023C0F
:10040000031D7929A801A90AB30A7929B308013C77
:10041000031D162A2808023C031D79292708093CD8
:10042000031D7929A801A90AB30A7929B308023C56
:10043000031D262A2808033C031D79292708023CAE
:10044000031D7929A801A90AB30A7929B308033C35
:10045000031D362A2808033C031D79292708013C7F
:10046000031D7929A801A90AB30A7929B308043C14
:10047000031D462A2808033C031D79292708023C4E
:10048000031D7929A801A90AB30A7929B308053CF3
:10049000031D562A2808033C031D79292708013C1F
:1004A000031D7929A801A90AB30A7929B308063CD2
:1004B000031D662A2808033C031D79292708023CEE
:1004C000031D7929A801A90AB30A7929B308073CB1
:1004D000031D762A2808033C031D79292708023CBE
:1004E000031D7929A801A90AB30A7929B308083C90
:1004F000031D062A2808033C031D79292708013C0F
:10050000031D7929A801A90AB30A7929B308093C6E
:10051000031D062A2808033C031D79292708023CED
:10052000031D7929A801A90AB30A7929B3080A3C4D
:10053000031D062A2808033C031D79292708013CCE
:10054000031D7929A801A90AB30A7929B3080B3C2C
:10055000031D062A2808033C031D79292708023CAD
:0C056000031D7929A801A90AB30A792912
:04400E00D420FF3F7C
:00000001FF
