:020000000029D5
:10000800B400030EB500031383120B100B1D122846
:100018000B1164308100AF0AB60A12280B1C16288F
:0E002800061C1628350E8300B40E340E090097
:1000C80082073F3406345B344F3466346D347D34F4
:1000D80007347F346F3477347C3439345E34793480
:0200E800713471
:10020000031383160F178F160F120F140313831681
:1002100087018501880106148614031383161614BA
:100220009614031383161514951403178316880167
:100230008901031383168113811281110115811421
:10024000011003138312870188018501B301B601F0
:10025000AF01643081008B158B170B118B162F08A3
:10026000031D4029051485100511851105128512FD
:1002700021080A128A1164200A128A1188002F2983
:100280002F08013C031D5229051085140511851105
:100290000512851222080A128A1164200A128A1194
:1002A00088002F292F08023C031D642905108510A2
:1002B000051585110512851224080A128A11642079
:1002C0000A128A1188002F292F08033C031D762962
:1002D00005108510051185150512851223080A12CF
:1002E0008A1164200A128A1188002F292F08043CE1
:1002F000031D882905108510051185110516851225
:1003000025080A128A1164200A128A1188002F29EE
:100310002F08053C031D2F29051085100511851197
:100320000512851626080A128A1164200A128A11FB
:060330008800AF012F2937
:04400E00D420FF3F7C
:00000001FF
