:020000000029D5
:10000800B300030EB400031383120B100B1D192841
:100018000B11AE0AB23081003F280C1C19280C10B5
:10002800EE308E0085308F00A10A0B1C3F28061C7D
:100038001F2824283F28061CAC0AA20A0B103F28B8
:100048002C08003C031D2E28861CA20A061C321010
:100058000B103F282C08013C031D3828861CA203DE
:10006800061C32100B103F282C08043C031D3F28A7
:10007800AC01A2013F28340E8300B30E330E0900F1
:10020000031383160F178F120F160F140313831681
:1002100087018501880106148614061586150313C7
:1002200083161614961416159615031383161514B3
:100230009514151595150317831688018901031365
:10024000831681138112811101158114011003138A
:100250008312870188018501B201B501B2308100A6
:100260008B158B170B118B160C100C1403138312A8
:10027000901610169010101403138312EE308E0097
:1002800085308F002C088800A100A200A400A300E4
:10029000A500A6000F30A105F030A205A20E0F3078
:1002A000A405F030A305A30E0F30A505F030A60578
:1002B000A60E2F088800A700A800A900AA000F30EA
:1002C000A705F030A805A80E0F30A905F030AA0543
:1002D000AA0EA70AAA0A2E08031D78290130850054
:1002E00021080A168A1500200A128A118800BB29E3
:1002F0002E08013C031D86290230850022080A16BB
:100300008A1500200A128A118800BB292E08023C97
:10031000031D94290430850024080A168A1500203C
:100320000A128A118800BB292E08033C031DA2294A
:100330000830850023080A168A1500200A128A113F
:100340008800BB292E08043C031DB029103085000D
:1003500025080A168A1500200A128A118800BB296E
:100360002030850026080A168A1500200A128A11F4
:100370008800AE01BB2921080A3C031D6B29A1019D
:10038000A20AC2292208063C031D6B29A201A40A65
:10039000C92924080A3C031D6B29A401A30AD029FA
:1003A0002308063C031D6B29A301A50AD7292508AC
:1003B0000A3C031D6B29A501A60ADE292608023C7A
:1003C000031D6B292508043C031D6B29A601A70A00
:1003D000E92927080A3C031D6B29A701A80AF0296F
:1003E000B108003C031D002A2808033C031D6B29AB
:1003F0002708023C031D6B29A801A90AB10A6B2931
:10040000B108013C031D102A2808023C031D6B297A
:100410002708093C031D6B29A801A90AB10A6B2909
:10042000B108023C031D202A2808033C031D6B2948
:100430002708023C031D6B29A801A90AB10A6B29F0
:10044000B108033C031D302A2808033C031D6B2917
:100450002708013C031D6B29A801A90AB10A6B29D1
:10046000B108043C031D402A2808033C031D6B29E6
:100470002708023C031D6B29A801A90AB10A6B29B0
:10048000B108053C031D502A2808033C031D6B29B5
:100490002708013C031D6B29A801A90AB10A6B2991
:1004A000B108063C031D602A2808033C031D6B2984
:1004B0002708023C031D6B29A801A90AB10A6B2970
:1004C000B108073C031D702A2808033C031D6B2953
:1004D0002708023C031D6B29A801A90AB10A6B2950
:1004E000B108083C031D002A2808033C031D6B29A2
:1004F0002708013C031D6B29A801A90AB10A6B2931
:10050000B108093C031D002A2808033C031D6B2980
:100510002708023C031D6B29A801A90AB10A6B290F
:10052000B1080A3C031D002A2808033C031D6B295F
:100530002708013C031D6B29A801A90AB10A6B29F0
:10054000B1080B3C031D002A2808033C031D6B293E
:100550002708023C031D6B29A801A90AB10A6B29CF
:1030000082073F3406345B344F3466346D347D348C
:1030100007347F346F3477347C3439345E34793418
:02302000713409
:04400E00D420FF3F7C
:00000001FF
