:020000000029D5
:10000800B400030EB5000C1C0F280C107C308E00B9
:10001800E1308F00A10A0B1D5A280B11DC3081003A
:10002800A00A16282F08003C031D22280514851055
:100038000511851105128512AF0A5D282F08013CAC
:10004800031D2E280510851405118511051285122A
:10005800AF0A5D282F08023C031D3A2805108510B9
:100068000515851105128512AF0A5D282F08033C76
:10007800031D4628051085100511851505128512E2
:10008800AF0A5D282F08043C031D5228051085106F
:100098000511851105168512AF0A5D280510851012
:1000A8000511851105128516AF015D280B1C5D2809
:0C00B8000B10350E8300B40E340E09004E
:1000C80082073F3406345B344F3466346D347D34F4
:1000D80007347F346F3477347C3439345E34793480
:0200E800713471
:10020000031383160F138F160F120F140317831681
:10021000880189010313831687018501880106146B
:100220008614061586150313831681138112811116
:10023000011581140110031383128B158B170B11F9
:100240008B160B1003138316161496141615961599
:10025000031383161514951415159515031383169A
:100260000C14031383120C10031383129016101630
:1002700090101014031383127C308E00E1308F0035
:1002800003138312870188018501B301B601AF0111
:10029000DC3081002C088800A100A200A400A3008B
:1002A000A500A6000F30A105F030A205A20E0F3068
:1002B000A405F030A305A30E0F30A505F030A60568
:1002C000A60E30088800A700A800A900AA000F30D9
:1002D000A705F030A805A80E0F30A905F030AA0533
:1002E000AA0EA70AAA0A74292F08031D7F2921082C
:1002F0000A128A1164200A128A118800BB292F0869
:10030000013C031D8B2922080A128A1164200A125B
:100310008A118800BB292F08023C031D9729240855
:100320000A128A1164200A128A118800BB292F0838
:10033000033C031DA32923080A128A1164200A1210
:100340008A118800BB292F08043C031DAF2925080A
:100350000A128A1164200A128A118800BB292F0808
:10036000053C031D732926080A128A1164200A120B
:100370008A118800BB2921080A3C031D7329A101A9
:10038000A20AC2292208063C031D7329A201A40A5D
:10039000C92924080A3C031D7329A401A30AD029F2
:1003A0002308063C031D7329A301A50AD7292508A4
:1003B0000A3C031D7329A501A60ADE292608023C72
:1003C000031D73292508043C031D7329A601A70AF0
:1003D000E92927080A3C031D7329A701A80AF02967
:1003E000B208003C031D002A2808033C031D7329A2
:1003F0002708023C031D7329A801A90AB20A732920
:10040000B208013C031D102A2808023C031D732971
:100410002708093C031D7329A801A90AB20A7329F8
:10042000B208023C031D202A2808033C031D73293F
:100430002708023C031D7329A801A90AB20A7329DF
:10044000B208033C031D302A2808033C031D73290E
:100450002708013C031D7329A801A90AB20A7329C0
:10046000B208043C031D402A2808033C031D7329DD
:100470002708023C031D7329A801A90AB20A73299F
:10048000B208053C031D502A2808033C031D7329AC
:100490002708013C031D7329A801A90AB20A732980
:1004A000B208063C031D602A2808033C031D73297B
:1004B0002708023C031D7329A801A90AB20A73295F
:1004C000B208073C031D702A2808033C031D73294A
:1004D0002708023C031D7329A801A90AB20A73293F
:1004E000B208083C031D002A2808033C031D732999
:1004F0002708013C031D7329A801A90AB20A732920
:10050000B208093C031D002A2808033C031D732977
:100510002708023C031D7329A801A90AB20A7329FE
:10052000B2080A3C031D002A2808033C031D732956
:100530002708013C031D7329A801A90AB20A7329DF
:10054000B2080B3C031D002A2808033C031D732935
:100550002708023C031D7329A801A90AB20A7329BE
:04400E00D420FF3F7C
:00000001FF
