:020000000029D5
:10000800B400030EB500031383120B100B1D542804
:100018000B1164308100B60A2F08003C031D1C2810
:10002800051485100511851105128512AF0A582887
:100038002F08013C031D282805108514051185117A
:1000480005128512AF0A58282F08023C031D3428D0
:10005800051085100515851105128512AF0A582857
:100068002F08033C031D4028051085100511851530
:1000780005128512AF0A58282F08043C031D4C2886
:10008800051085100511851105168512AF0A582827
:10009800051085100511851105128516AF01582820
:1000A8000B1C5828061C5828350E8300B40E340E35
:0200B80009003D
:1000C80082073F3406345B344F3466346D347D34F4
:1000D80007347F346F3477347C3439345E34793480
:0200E800713471
:10020000031383160F178F160F120F140313831681
:1002100087018501880106148614031383161614BA
:100220009614031383161514951403178316880167
:1002300089010313831681128111011581140110A4
:1002400003138312870188018501B301B601AF0151
:10025000643081008B170B118B162D292F08031D7D
:10026000392921080A128A1164200A128A11880089
:100270002D292F08013C031D452922080A128A1145
:1002800064200A128A1188002D292F08023C031DC0
:10029000512924080A128A1164200A128A1188003E
:1002A0002D292F08033C031D5D2923080A128A11FA
:1002B00064200A128A1188002D292F08043C031D8E
:1002C000692925080A128A1164200A128A118800F5
:1002D0002D292F08053C031D2D2926080A128A11F5
:0A02E00064200A128A1188002D29FB
:04400E00D420FF3F7C
:00000001FF
