:020000000029D5
:10000800B400030EB5000B100B1D0E280B11643045
:100018008100A00A031383120B100C1C85280C10F6
:100028008F308E00FD308F0019282F08003C031DEB
:100038002C28051485100511851105128512210833
:100048000A168A1500200A128A118800AF0A882821
:100058002F08013C031D3F28051085140511851143
:100068000512851222080A168A1500200A128A111A
:100078008800AF0A88282F08023C031D5028051065
:1000880085100515851124080A168A1500200A12FC
:100098008A118800AF0A88282F08033C031D6328AB
:1000A80005108510051185150512851223080A16F5
:1000B8008A1500200A128A118800AF0A88282F089A
:1000C800043C031D762805108510051185110516B9
:1000D800851225080A168A1500200A128A11880036
:1000E800AF0A882805108510051185110512851697
:1000F80026080A168A1500200A128A118800AF01FC
:1001080088280B1C88280B10350E8300B40E340E7B
:020118000900DC
:10020000031383160F138F160F120F140313831685
:100210008701880185018601061486140615861556
:100220000317831688018901031383161614961485
:100230001615961503138316151495141515951593
:10024000031383168113811281110111811001148E
:1002500003138312901610169010101403138312B8
:100260008F308E00FD308F000313831287018501CC
:100270008601A001A101A201A401A301A501A6017B
:10028000AB01AC01AF01643081008B010C100C1488
:100290000B178B168B178B150B110B102C08880066
:1002A000A100A200A400A300A500A6000F30A10594
:1002B000F030A205A20E0F30A405F030A305A30E66
:1002C0000F30A505F030A605A60E30088800A7005F
:1002D000A800A900AA000F30A705F030A805A80EB5
:1002E0000F30A905F030AA05AA0EA70AAA0A7F298D
:1002F0002008643C031D7829A001A10A7729210860
:100300000A3C031D7829A101A20A86292208063C7D
:10031000031D7729A201A40A8D2924080A3C031D84
:100320007729A401A30A94292308063C031D7729F1
:10033000A301A50A9B2925080A3C031D7729A501CD
:10034000A60AA2292608023C031D77292508043C99
:10035000031D7729A601A70AAD2927080A3C031D1A
:100360007729A701A80AB429B208003C031DC429B3
:100370002808033C031D77292708023C031D772921
:10038000A801A90AB20A7729B208013C031DD429A1
:100390002808023C031D77292708093C031D7729FB
:1003A000A801A90AB20A7729B208023C031DE42970
:1003B0002808033C031D77292708023C031D7729E1
:1003C000A801A90AB20A7729B208033C031DF4293F
:1003D0002808033C031D77292708013C031D7729C2
:1003E000A801A90AB20A7729B208043C031D042A0D
:1003F0002808033C031D77292708023C031D7729A1
:10040000A801A90AB20A7729B208053C031D142ADB
:100410002808033C031D77292708013C031D772981
:10042000A801A90AB20A7729B208063C031D242AAA
:100430002808033C031D77292708023C031D772960
:10044000A801A90AB20A7729B208073C031D342A79
:100450002808033C031D77292708023C031D772940
:10046000A801A90AB20A7729B208083C031DC429C9
:100470002808033C031D77292708013C031D772921
:10048000A801A90AB20A7729B208093C031DC429A8
:100490002808033C031D77292708023C031D772900
:1004A000A801A90AB20A7729B2080A3C031DC42987
:1004B0002808033C031D77292708013C031D7729E1
:1004C000A801A90AB20A7729B2080B3C031DC42966
:1004D0002808033C031D77292708023C031D7729C0
:0804E000A801A90AB20A77295C
:1030000082073F3406345B344F3466346D347D348C
:1030100007347F346F3477347C3439345E34793418
:02302000713409
:04400E00D420FF3F7C
:00000001FF
