:060000000A128A1100291A
:10000800B500030EB6000B180E280C181E280B1985
:1000180024285D2803138312061CB30A0B10152825
:100028005D28861CB414061D3415861DB415061EDD
:1000380034165D280C107C308E00E1308F00A10A48
:1000480003138312DC3081000B11A00A2B28031341
:1000580083122F08003C031D362801308500AF0AA3
:100068000B105D282F08013C031D3F280230850036
:10007800AF0A0B105D282F08023C031D48280430E6
:100088008500AF0A0B105D282F08033C031D51287B
:1000980008308500AF0A0B105D282F08043C031DAB
:1000A8005A2810308500AF0A0B105D2820308500D3
:0E00B800AF010000360E8300B50E350E0900B4
:1000C80082073F3406345B344F3466346D347D34F4
:1000D80007347F346F3477347C3439345E34793480
:0200E800713471
:10020000031383160F138F160F120F140317831681
:10021000880189010313831687018501880106146B
:1002200086140615861506160313831615149514E1
:100230001515951515160313831681138112811157
:10024000011581140110031383128B178B168B1564
:100250000B110B100313831616149614161596150E
:1002600016160313831206080B10031383160C14BF
:10027000031383120C1003138312901610169010A0
:100280001014031383127C308E00E1308F000313AF
:100290008312870188018501B701AF01DC3081003D
:1002A0002C088800A100A200A400A300A500A600BD
:1002B0000F30A105F030A205A20E0F30A405F030DA
:1002C000A305A30E0F30A505F030A605A60E300835
:1002D0008800A700A800A900AA000F30A705F030E9
:1002E000A805A80E0F30A905F030AA05AA0EA70A86
:1002F000A90A7A29031383123308003C031D8229BB
:100300000517D52A031383123308013C031D8B29DB
:10031000051385171C2B031383123308023C031D9E
:10032000CB2999219E21A321A821AD21B921C0214A
:10033000D52AB41C0800A40AB4100800341D080013
:10034000A40334110800B41D0800A50AB411080064
:10035000341E0800A5033412080024080A3C031DBB
:100360000800A401A30A2308063C031D0800A301FA
:10037000080025080A3C031D0800A501A60A08007C
:100380002608023C031D08002508043C031D080044
:10039000A601A5010800031383123308033C031DC3
:1003A000CA2ADA21DF21F621E421EA21EF21B7224E
:1003B000BE221C2BB41C0800A70AB4100800341D70
:1003C0000800A70334110800B41D0800A90AB20AE6
:1003D000B4110800341E0800A903341208002708CD
:1003E0000A3C031D0800A701A80A0800F721B2086B
:1003F000003C031D072A2808033C031D08002708AA
:10040000023C031D0800A801A701A70A0800B208C2
:10041000013C031D172A2808023C031D0800270879
:10042000093C031D0800A801A701A70A0800B2089B
:10043000023C031D272A2808033C031D0800270847
:10044000023C031D0800A801A701A70A0800B20882
:10045000033C031D372A2808033C031D0800270816
:10046000013C031D0800A801A701A70A0800B20863
:10047000043C031D472A2808033C031D08002708E5
:10048000023C031D0800A801A701A70A0800B20842
:10049000053C031D572A2808033C031D08002708B4
:1004A000013C031D0800A801A701A70A0800B20823
:1004B000063C031D672A2808033C031D0800270883
:1004C000023C031D0800A801A701A70A0800B20802
:1004D000073C031D772A2808033C031D0800270852
:1004E000023C031D0800A801A701A70A0800B208E2
:1004F000083C031D872A2808033C031D0800270821
:10050000013C031D0800A801A701A70A0800B208C2
:10051000093C031D972A2808033C031D08002708EF
:10052000023C031D0800A801A701A70A0800B208A1
:100530000A3C031DA72A2808033C031D08002708BE
:10054000013C031D0800A801A701A70A0800B20882
:100550000B3C031D08002808033C031D0800270866
:10056000023C031D0800A801A701A70A08002908EA
:100570000A3C031D0800A901AA0A08002A08013C38
:10058000031D08002908033C031D0800AA01A90156
:10059000B2010800031383123308043C031DD12A5F
:1005A000D52A03138312B301D52A2F08031DE02A8D
:1005B00021080A128A1164200A128A118800632B0A
:1005C0002F08013C031DEC2A22080A128A1164201C
:1005D0000A128A118800632B2F08023C031DF82A97
:1005E00024080A128A1164200A128A118800632BD7
:1005F0002F08033C031D042B23080A128A116420D0
:100600000A128A118800632B2F08043C031D102B4B
:1006100025080A128A1164200A128A118800632BA5
:100620002F08053C031D792926080A128A11642027
:100630000A128A118800632B2F08031D272B270815
:100640000A128A1164200A128A118800632B2F086B
:10065000013C031D332B28080A128A1164200A1258
:100660008A118800632B2F08023C031D3F2B2908A9
:100670000A128A1164200A128A118800632B2F083B
:10068000033C031D4B2B2A080A128A1164200A120C
:100690008A118800632B2F08043C031D572B003060
:1006A0000A128A1164200A128A118800632B2F080B
:1006B000053C031D792900300A128A1164200A12B0
:1006C0008A118800632B21080A3C031D7929A101A6
:1006D000A20A6A2B2208063C031D7929A201A40A5A
:1006E000712B24080A3C031D7929A401A30A782B45
:1006F0002308063C031D7929A301A50A7F2B2508A1
:100700000A3C031D7929A501A60A862B2608023C6E
:10071000031D79292508043C031D7929A601A70A90
:10072000912B27080A3C031D7929A701A80A982BB9
:10073000B208003C031DAA2B2808033C031D79299D
:100740002708023C031D7929A801A701A70AA90AC5
:10075000B20A7929B208013C031DBC2B2808023CCF
:10076000031D79292708093C031D7929A801A70140
:10077000A70AA90AB20A7929B208023C031DCE2BA6
:100780002808033C031D79292708023C031D792909
:10079000A801A701A70AA90AB20A7929B208033C4D
:1007A000031DE02B2808033C031D79292708013C81
:1007B000031D7929A801A701A70AA90AB20A792964
:1007C000B208043C031DF22B2808033C031D7929C1
:1007D0002708023C031D7929A801A701A70AA90A35
:1007E000B20A7929B208053C031D042C2808033CF1
:1007F000031D79292708013C031D7929A801A701B8
:10080000A70AA90AB20A7929B208063C031D162CC8
:100810002808033C031D79292708023C031D792978
:10082000A801A701A70AA90AB20A7929B208073CB8
:10083000031D282C2808033C031D79292708023CA6
:10084000031D7929A801A701A70AA90AB20A7929D3
:10085000B208083C031D3A2C2808033C031D7929E3
:100860002708013C031D7929A801A701A70AA90AA5
:10087000B20A7929B208093C031D4D2C2808033C13
:10088000031D79292708023C031D7929A801A70126
:10089000A701A70AA90AB20A7929B2080A3C031DCE
:1008A0005F2C2808033C031D79292708013C031D00
:1008B0007929A801A701A70AA90AB20A7929B208C9
:1008C0000B3C031DAA2B2808033C031D792927088C
:1008D000023C031D7929A801A701A70AA90AB20AA7
:0208E000792974
:04400E00D420FF3F7C
:00000001FF
