:060000000A128A1100291A
:10000800B400030EB5000B180E280C181F280B1986
:1000180025285E2803138312061CB30A0B10152823
:100028005E283308033C031D5E28861CA70A861D2C
:10003800A90A0B105E280C107C308E00E1308F006E
:10004800A10A03138312DC3081000B11A00A2C28AB
:10005800031383122F08003C031D37280130850045
:10006800AF0A0B105E282F08013C031D4028023000
:100078008500AF0A0B105E282F08023C031D492893
:1000880004308500AF0A0B105E282F08033C031DBF
:10009800522808308500AF0A0B105E282F08043C50
:1000A800031D5B2810308500AF0A0B105E28203036
:1000B8008500AF010000350E8300B40E340E090030
:1000C80082073F3406345B344F3466346D347D34F4
:1000D80007347F346F3477347C3439345E34793480
:0200E800713471
:10020000031383160F138F160F120F140317831681
:10021000880189010313831687018501880106146B
:1002200086140615861506160313831615149514E1
:100230001515951515160313831681138112811157
:10024000011581140110031383128B178B168B1564
:100250000B110B1003138316161416151616031321
:10026000831206080B10031383160C140313831256
:100270000C10031383129016101690101014031311
:1002800083127C308E00E1308F00031383128701CC
:1002900088018501B601AF01DC3081002C0888009F
:1002A000A100A200A400A300A500A6000F30A10594
:1002B000F030A205A20E0F30A405F030A305A30E66
:1002C0000F30A505F030A605A60E30088800A7005F
:1002D000A800A900AA000F30A705F030A805A80EB5
:1002E0000F30A905F030AA05AA0EA70AA90A782995
:1002F000031383123308003C031D80290517C3290B
:10030000031383123308013C031D89290513851744
:100310000A2A031383123308023C031DB1299321D7
:100320009F21A621C32924080A3C031D0800A4011B
:10033000A30A2308063C031D0800A30108002508A2
:100340000A3C031D0800A501A60A08002608023C75
:10035000031D08002508043C031D0800A601A50193
:100360000800031383123308033C031DB8290A2A2B
:10037000031383123308043C031DBF29C32903134D
:100380008312B301C3292F08031DCE2921080A12A5
:100390008A1164200A128A118800512A2F08013C10
:1003A000031DDA2922080A128A1164200A128A110E
:1003B0008800512A2F08023C031DE62924080A124E
:1003C0008A1164200A128A118800512A2F08033CDE
:1003D000031DF22923080A128A1164200A128A11C5
:1003E0008800512A2F08043C031DFE2925080A1203
:1003F0008A1164200A128A118800512A2F08053CAC
:10040000031D772926080A128A1164200A128A110C
:100410008800512A2F08031D152A27080A128A115D
:1004200064200A128A118800512A2F08013C031DFA
:10043000212A28080A128A1164200A128A118800C7
:10044000512A2F08023C031D2D2A29080A128A115D
:1004500064200A128A118800512A2F08033C031DC8
:10046000392A2A080A128A1164200A128A1188007D
:10047000512A2F08043C031D452A00300A128A1114
:1004800064200A128A118800512A2F08053C031D96
:10049000772900300A128A1164200A128A11880012
:1004A000512A21080A3C031D7729A101A20A582AD2
:1004B0002208063C031D7729A201A40A5F2A24080A
:1004C0000A3C031D7729A401A30A662A2308063CD7
:1004D000031D7729A301A50A6D2A25080A3C031DDF
:1004E0007729A501A60A742A2608023C031D77294C
:1004F0002508043C031D7729A601A70A7F2A27089F
:100500000A3C031D7729A701A80A862AB208003CE5
:10051000031D962A2808033C031D77292708023C5F
:10052000031D7729A801A90AB20A7729B208013C5C
:10053000031DA62A2808023C031D77292708093C29
:10054000031D7729A801A90AB20A7729B208023C3B
:10055000031DB62A2808033C031D77292708023CFF
:10056000031D7729A801A90AB20A7729B208033C1A
:10057000031DC62A2808033C031D77292708013CD0
:10058000031D7729A801A90AB20A7729B208043CF9
:10059000031DD62A2808033C031D77292708023C9F
:1005A000031D7729A801A90AB20A7729B208053CD8
:1005B000031DE62A2808033C031D77292708013C70
:1005C000031D7729A801A90AB20A7729B208063CB7
:1005D000031DF62A2808033C031D77292708023C3F
:1005E000031D7729A801A90AB20A7729B208073C96
:1005F000031D062B2808033C031D77292708023C0E
:10060000031D7729A801A90AB20A7729B208083C74
:10061000031D962A2808033C031D77292708013C5F
:10062000031D7729A801A90AB20A7729B208093C53
:10063000031D962A2808033C031D77292708023C3E
:10064000031D7729A801A90AB20A7729B2080A3C32
:10065000031D962A2808033C031D77292708013C1F
:10066000031D7729A801A90AB20A7729B2080B3C11
:10067000031D962A2808033C031D77292708023CFE
:0C068000031D7729A801A90AB20A7729F6
:04400E00D420FF3F7C
:00000001FF
