:060000000A128A1100291A
:10000800B400030EB5000B180E280C181F280B1986
:1000180025285E2803138312061CB30A0B10152823
:100028005E283308023C031D5E28861CA40A861D30
:10003800A50A0B105E280C107C308E00E1308F0072
:10004800A10A03138312DC3081000B11A00A2C28AB
:10005800031383122F08003C031D37280130850045
:10006800AF0A0B105E282F08013C031D4028023000
:100078008500AF0A0B105E282F08023C031D492893
:1000880004308500AF0A0B105E282F08033C031DBF
:10009800522808308500AF0A0B105E282F08043C50
:1000A800031D5B2810308500AF0A0B105E28203036
:1000B8008500AF010000350E8300B40E340E090030
:1000C80082073F3406345B344F3466346D347D34F4
:1000D80007347F346F3477347C3439345E34793480
:0200E800713471
:10020000031383160F138F160F120F140317831681
:10021000880189010313831687018501880106146B
:1002200086140615861506160313831615149514E1
:100230001515951515160313831681138112811157
:10024000011581140110031383128B178B168B1564
:100250000B110B100313831616149614161596150E
:1002600016160313831206080B10031383160C14BF
:10027000031383120C1003138312901610169010A0
:100280001014031383127C308E00E1308F000313AF
:100290008312870188018501B601AF01DC3081003E
:1002A0002C088800A100A200A400A300A500A600BD
:1002B0000F30A105F030A205A20E0F30A405F030DA
:1002C000A305A30E0F30A505F030A605A60E300835
:1002D0008800A700A800A900AA000F30A705F030E9
:1002E000A805A80E0F30A905F030AA05AA0EA70A86
:1002F000A90A7A29031383123308003C031D8229BB
:100300000517C529031383123308013C031D8B29EC
:10031000051385170C2A031383123308023C031DAF
:10032000B3299521A121A821C52924080A3C031D30
:100330000800A401A30A2308063C031D0800A3012A
:10034000080025080A3C031D0800A501A60A0800AC
:100350002608023C031D08002508043C031D080074
:10036000A601A5010800031383123308033C031DF3
:10037000BA290C2A031383123308043C031DC12934
:10038000C52903138312B301C5292F08031DD029E2
:1003900021080A128A1164200A128A118800532A3D
:1003A0002F08013C031DDC2922080A128A1164204F
:1003B0000A128A118800532A2F08023C031DE829DB
:1003C00024080A128A1164200A128A118800532A0A
:1003D0002F08033C031DF42923080A128A11642004
:1003E0000A128A118800532A2F08043C031D002A90
:1003F00025080A128A1164200A128A118800532AD9
:100400002F08053C031D792926080A128A11642049
:100410000A128A118800532A2F08031D172A270859
:100420000A128A1164200A128A118800532A2F089E
:10043000013C031D232A28080A128A1164200A128B
:100440008A118800532A2F08023C031D2F2A2908ED
:100450000A128A1164200A128A118800532A2F086E
:10046000033C031D3B2A2A080A128A1164200A123F
:100470008A118800532A2F08043C031D472A0030A4
:100480000A128A1164200A128A118800532A2F083E
:10049000053C031D792900300A128A1164200A12D2
:1004A0008A118800532A21080A3C031D7929A101D9
:1004B000A20A5A2A2208063C031D7929A201A40A8D
:1004C000612A24080A3C031D7929A401A30A682A89
:1004D0002308063C031D7929A301A50A6F2A2508D4
:1004E0000A3C031D7929A501A60A762A2608023CA2
:1004F000031D79292508043C031D7929A601A70AB3
:10050000812A27080A3C031D7929A701A80A882AFD
:10051000B208003C031D982A2808033C031D7929D2
:100520002708023C031D7929A801A90AB20A7929E2
:10053000B208013C031DA82A2808023C031D7929A2
:100540002708093C031D7929A801A90AB20A7929BB
:10055000B208023C031DB82A2808033C031D792970
:100560002708023C031D7929A801A90AB20A7929A2
:10057000B208033C031DC82A2808033C031D79293F
:100580002708013C031D7929A801A90AB20A792983
:10059000B208043C031DD82A2808033C031D79290E
:1005A0002708023C031D7929A801A90AB20A792962
:1005B000B208053C031DE82A2808033C031D7929DD
:1005C0002708013C031D7929A801A90AB20A792943
:1005D000B208063C031DF82A2808033C031D7929AC
:1005E0002708023C031D7929A801A90AB20A792922
:1005F000B208073C031D082B2808033C031D79297A
:100600002708023C031D7929A801A90AB20A792901
:10061000B208083C031D982A2808033C031D7929C9
:100620002708013C031D7929A801A90AB20A7929E2
:10063000B208093C031D982A2808033C031D7929A8
:100640002708023C031D7929A801A90AB20A7929C1
:10065000B2080A3C031D982A2808033C031D792987
:100660002708013C031D7929A801A90AB20A7929A2
:10067000B2080B3C031D982A2808033C031D792966
:100680002708023C031D7929A801A90AB20A792981
:04400E00D420FF3F7C
:00000001FF
