:060000000A128A1100291A
:10000800B400030EB5000B180E280C1814280B1991
:100018001A28532803138312061CB30A0B105328FB
:100028000C107C308E00E1308F00A10A031383127C
:10003800DC3081000B11A00A2128031383122F083A
:10004800003C031D2C2801308500AF0A0B105328F3
:100058002F08013C031D352802308500AF0A0B101C
:1000680053282F08023C031D3E2804308500AF0AA0
:100078000B1053282F08033C031D47280830850020
:10008800AF0A0B1053282F08043C031D50281030CA
:100098008500AF0A0B10532820308500AF010000FF
:0A00A800350E8300B40E340E09007B
:1000C80082073F3406345B344F3466346D347D34F4
:1000D80007347F346F3477347C3439345E34793480
:0200E800713471
:10020000031383160F138F160F120F140317831681
:10021000880189010313831687018501880106146B
:1002200086140615861506160313831615149514E1
:100230001515951515160313831681138112811157
:10024000011581140110031383128B178B168B1564
:100250000B110B100313831616149614161596150E
:1002600016160313831206080B10031383160C14BF
:10027000031383120C1003138312901610169010A0
:100280001014031383127C308E00E1308F000313AF
:100290008312870188018501B601AF01DC3081003E
:1002A0002C088800A100A200A400A300A500A600BD
:1002B0000F30A105F030A205A20E0F30A405F030DA
:1002C000A305A30E0F30A505F030A605A60E300835
:1002D0008800A700A800A900AA000F30A705F030E9
:1002E000A805A80E0F30A905F030AA05AA0EA70A86
:1002F000A90A7A29031383123308003C031D8229BB
:100300000517A829031383123308013C031D8B2909
:1003100005138517EF29031383123308023C031DCD
:10032000962903138312861CA40A2128031383121F
:100330003308033C031D9D2921280313831233082E
:10034000043C031DA429212803138312B30121288F
:100350002F08031DB32921080A128A1164200A12EA
:100360008A118800362A2F08013C031DBF29220864
:100370000A128A1164200A128A118800362A2F086C
:10038000023C031DCB2924080A128A1164200A1298
:100390008A118800362A2F08033C031DD729230819
:1003A0000A128A1164200A128A118800362A2F083C
:1003B000043C031DE32925080A128A1164200A124D
:1003C0008A118800362A2F08053C031D7929260842
:1003D0000A128A1164200A128A118800362A2F080C
:1003E000031DFA2927080A128A1164200A128A11A9
:1003F0008800362A2F08013C031D062A28080A1205
:100400008A1164200A128A118800362A2F08023CB9
:10041000031D122A29080A128A1164200A128A115D
:100420008800362A2F08033C031D1E2A2A080A12B8
:100430008A1164200A128A118800362A2F08043C87
:10044000031D2A2A00300A128A1164200A128A1116
:100450008800362A2F08053C031D792900300A122E
:100460008A1164200A128A118800362A21080A3C5F
:10047000031D7929A101A20A3D2A2208063C031D79
:100480007929A201A40A442A24080A3C031D7929D7
:10049000A401A30A4B2A2308063C031D7929A301C2
:1004A000A50A522A25080A3C031D7929A501A60A96
:1004B000592A2608023C031D79292508043C031DFE
:1004C0007929A601A70A642A27080A3C031D79296D
:1004D000A701A80A6B2AB208003C031D7B2A280842
:1004E000033C031D79292708023C031D7929A80133
:1004F000A90AB20A7929B208013C031D8B2A2808EF
:10050000023C031D79292708093C031D7929A8010C
:10051000A90AB20A7929B208023C031D9B2A2808BD
:10052000033C031D79292708023C031D7929A801F2
:10053000A90AB20A7929B208033C031DAB2A28088C
:10054000033C031D79292708013C031D7929A801D3
:10055000A90AB20A7929B208043C031DBB2A28085B
:10056000033C031D79292708023C031D7929A801B2
:10057000A90AB20A7929B208053C031DCB2A28082A
:10058000033C031D79292708013C031D7929A80193
:10059000A90AB20A7929B208063C031DDB2A2808F9
:1005A000033C031D79292708023C031D7929A80172
:1005B000A90AB20A7929B208073C031DEB2A2808C8
:1005C000033C031D79292708023C031D7929A80152
:1005D000A90AB20A7929B208083C031D7B2A280817
:1005E000033C031D79292708013C031D7929A80133
:1005F000A90AB20A7929B208093C031D7B2A2808F6
:10060000033C031D79292708023C031D7929A80111
:10061000A90AB20A7929B2080A3C031D7B2A2808D4
:10062000033C031D79292708013C031D7929A801F2
:10063000A90AB20A7929B2080B3C031D7B2A2808B3
:10064000033C031D79292708023C031D7929A801D1
:06065000A90AB20A792993
:04400E00D420FF3F7C
:00000001FF
