:020000000029D5
:10000800B300030EB4000C1C0F280C107C308E00BB
:10001800E1308F00A10A0B1D42280B11DC30810052
:10002800A00A16282F08003C031D1E280130850051
:10003800AF0A47282F08013C031D262802308500F7
:10004800AF0A47282F08023C031D2E2804308500DC
:10005800AF0A47282F08033C031D362808308500BF
:10006800AF0A47282F08043C031D3E28103085009E
:10007800AF0A472820308500AF0147280B100B1C1A
:1000880047280B104728340E8300B30E330E09009F
:1000C80082073F3406345B344F3466346D347D34F4
:1000D80007347F346F3477347C3439345E34793480
:0200E800713471
:10020000031383160F138F160F120F140317831681
:10021000880189010313831687018501880106146B
:10022000861406158615061603138316811381128C
:100230008111011581140110031383128B158B1783
:100240000B118B160B100313831616149614161528
:100250009615161603138316151495141515951572
:100260001516031383160C14031383120C100313B7
:1002700083129016101690101014031383127C3002
:100280008E00E1308F0003138312870188018501FE
:10029000B501AF01DC3081002C088800A100A2006C
:1002A000A400A300A500A6000F30A105F030A20510
:1002B000A20E0F30A405F030A305A30E0F30A50544
:1002C000F030A605A60E30088800A700A800A900F7
:1002D000AA000F30A705F030A805A80E0F30A90519
:1002E000F030AA05AA0EA70AAA0A76292F08031D2C
:1002F000812921080A128A1164200A128A118800B1
:10030000BD292F08013C031D8D2922080A128A11DC
:1003100064200A128A118800BD292F08023C031D9F
:10032000992924080A128A1164200A128A11880065
:10033000BD292F08033C031DA52923080A128A1191
:1003400064200A128A118800BD292F08043C031D6D
:10035000B12925080A128A1164200A128A1188001C
:10036000BD292F08053C031D752926080A128A118C
:1003700064200A128A118800BD2921080A3C031D45
:100380007529A101A20AC4292208063C031D75296A
:10039000A201A40ACB2924080A3C031D7529A40143
:1003A000A30AD2292308063C031D7529A301A50A27
:1003B000D92925080A3C031D7529A501A60AE029AB
:1003C0002608023C031D75292508043C031D7529D8
:1003D000A601A70AEB2927080A3C031D7529A701D6
:1003E000A80AF229B208003C031D022A2808033C8F
:1003F000031D75292708023C031D7529A801A90AB8
:10040000B20A7529B208013C031D122A2808023CD1
:10041000031D75292708093C031D7529A801A90A90
:10042000B20A7529B208023C031D222A2808033C9F
:10043000031D75292708023C031D7529A801A90A77
:10044000B20A7529B208033C031D322A2808033C6E
:10045000031D75292708013C031D7529A801A90A58
:10046000B20A7529B208043C031D422A2808033C3D
:10047000031D75292708023C031D7529A801A90A37
:10048000B20A7529B208053C031D522A2808033C0C
:10049000031D75292708013C031D7529A801A90A18
:1004A000B20A7529B208063C031D622A2808033CDB
:1004B000031D75292708023C031D7529A801A90AF7
:1004C000B20A7529B208073C031D722A2808033CAA
:1004D000031D75292708023C031D7529A801A90AD7
:1004E000B20A7529B208083C031D022A2808033CF9
:1004F000031D75292708013C031D7529A801A90AB8
:10050000B20A7529B208093C031D022A2808033CD7
:10051000031D75292708023C031D7529A801A90A96
:10052000B20A7529B2080A3C031D022A2808033CB6
:10053000031D75292708013C031D7529A801A90A77
:10054000B20A7529B2080B3C031D022A2808033C95
:10055000031D75292708023C031D7529A801A90A56
:04056000B20A75293D
:04400E00D420FF3F7C
:00000001FF
