:060000000A128A1100291A
:10000800B300030EB4000B180E280C1814280B1993
:100018001A28532803138312061C870A0B10532827
:100028000C107C308E00E1308F00A10A031383127C
:10003800DC3081000B11A00A2128031383122F083A
:10004800003C031D2C2801308500AF0A0B105328F3
:100058002F08013C031D352802308500AF0A0B101C
:1000680053282F08023C031D3E2804308500AF0AA0
:100078000B1053282F08033C031D47280830850020
:10008800AF0A0B1053282F08043C031D50281030CA
:100098008500AF0A0B10532820308500AF010000FF
:0A00A800340E8300B30E330E09007E
:1000C80082073F3406345B344F3466346D347D34F4
:1000D80007347F346F3477347C3439345E34793480
:0200E800713471
:10020000031383160F138F160F120F140317831681
:10021000880189010313831687018501880106146B
:1002200086140615861506160313831615149514E1
:100230001515951515160313831681138112811157
:10024000011581140110031383128B178B168B1564
:100250000B110B100313831616149614161596150E
:1002600016160313831206080B10031383160C14BF
:10027000031383120C1003138312901610169010A0
:100280001014031383127C308E00E1308F000313AF
:100290008312870188018501B501AF01DC3081003F
:1002A0002C088800A100A200A400A300A500A600BD
:1002B0000F30A105F030A205A20E0F30A405F030DA
:1002C000A305A30E0F30A505F030A605A60E300835
:1002D0008800A700A800A900AA000F30A705F030E9
:1002E000A805A80E0F30A905F030AA05AA0EA70A86
:1002F000AA0A7A292F08031D852921080A128A11C2
:1003000064200A128A118800C1292F08013C031DAC
:10031000912922080A128A1164200A128A1188007F
:10032000C1292F08023C031D9D2924080A128A11A5
:1003300064200A128A118800C1292F08033C031D7A
:10034000A92923080A128A1164200A128A11880036
:10035000C1292F08043C031DB52925080A128A115A
:1003600064200A128A118800C1292F08053C031D48
:10037000792926080A128A1164200A128A11880033
:10038000C12921080A3C031D7929A101A20AC82913
:100390002208063C031D7929A201A40ACF292408BA
:1003A0000A3C031D7929A401A30AD6292308063C87
:1003B000031D7929A301A50ADD2925080A3C031D8F
:1003C0007929A501A60AE4292608023C031D7929FA
:1003D0002508043C031D7929A601A70AEF2927084F
:1003E0000A3C031D7929A701A80AF629B208003C96
:1003F000031D062A2808033C031D79292708023C0F
:10040000031D7929A801A90AB20A7929B208013C79
:10041000031D162A2808023C031D79292708093CD8
:10042000031D7929A801A90AB20A7929B208023C58
:10043000031D262A2808033C031D79292708023CAE
:10044000031D7929A801A90AB20A7929B208033C37
:10045000031D362A2808033C031D79292708013C7F
:10046000031D7929A801A90AB20A7929B208043C16
:10047000031D462A2808033C031D79292708023C4E
:10048000031D7929A801A90AB20A7929B208053CF5
:10049000031D562A2808033C031D79292708013C1F
:1004A000031D7929A801A90AB20A7929B208063CD4
:1004B000031D662A2808033C031D79292708023CEE
:1004C000031D7929A801A90AB20A7929B208073CB3
:1004D000031D762A2808033C031D79292708023CBE
:1004E000031D7929A801A90AB20A7929B208083C92
:1004F000031D062A2808033C031D79292708013C0F
:10050000031D7929A801A90AB20A7929B208093C70
:10051000031D062A2808033C031D79292708023CED
:10052000031D7929A801A90AB20A7929B2080A3C4F
:10053000031D062A2808033C031D79292708013CCE
:10054000031D7929A801A90AB20A7929B2080B3C2E
:10055000031D062A2808033C031D79292708023CAD
:0C056000031D7929A801A90AB20A792913
:04400E00D420FF3F7C
:00000001FF
