:060000000A128A1100291A
:10000800B600030EB7000B180E280C181E280B1983
:1000180024285D2803138312061CB30A0B10152825
:100028005D28861CB414061D3415861DB415061EDD
:1000380034165D280C107C308E00E1308F00A10A48
:1000480003138312DC3081000B11A00A2B28031341
:1000580083122F08003C031D362801308500AF0AA3
:100068000B105D282F08013C031D3F280230850036
:10007800AF0A0B105D282F08023C031D48280430E6
:100088008500AF0A0B105D282F08033C031D51287B
:1000980008308500AF0A0B105D282F08043C031DAB
:1000A8005A2810308500AF0A0B105D2820308500D3
:0E00B800AF010000370E8300B60E360E0900B1
:1000C80082073F3406345B344F3466346D347D34F4
:1000D80007347F346F3477347C3439345E34793480
:0200E800713471
:10020000031383160F138F160F120F140317831681
:10021000880189010313831687018501880106146B
:1002200086140615861506160313831615149514E1
:100230001515951515160313831681138112811157
:10024000011581140110031383128B178B168B1564
:100250000B110B100313831616149614161596150E
:1002600016160313831206080B10031383160C14BF
:10027000031383120C1003138312901610169010A0
:100280001014031383127C308E00E1308F000313AF
:100290008312870188018501B201B301AC01B0016D
:1002A000B301AF01B801AF01A101A201A401A301F3
:1002B000A501A601A701A801A901AA01B401DC308A
:1002C00081002C088800A100A200A400A300A500C2
:1002D000A6000F30A105F030A205A20E0F30A40534
:1002E000F030A305A30E0F30A505F030A605A60E2D
:1002F00030088800A700A800A900AA000F30A705B1
:10030000F030A805A80E0F30A905F030AA05AA0EF6
:10031000A70AA90A8B29031383123308003C031D83
:1003200093290517EA2A031383123308013C031D9E
:100330009C2905138517312B031383123308023CC4
:10034000031DDC29AA21AF21B421B921BE21CA2174
:10035000D121EA2AB41C0800A40AB4010800341D03
:100360000800A403B4010800B41D0800A50AB401E4
:100370000800341E0800A503B401080024080A3C44
:10038000031D0800A401A30A2308063C031D08005E
:10039000A301080025080A3C031D0800A501A60AC0
:1003A00008002608023C031D08002508043C031D24
:1003B0000800A601A5010800031383123308033CBB
:1003C000031DDF2AEB21F021F521FC210922022265
:1003D000CC22D322312BB41C0800A70AB401080098
:1003E000341D0800A703B4010800B41D0800A90AC1
:1003F000B20A870AB4010800341E0800A903B20338
:10040000B401080027080A3C031D0800A701A80A38
:1004100008000B2A0800B208003C031D1B2A28080C
:10042000033C031D08002708023C031D0800A80127
:10043000A701A70A0800B208013C031D2B2A2808BF
:10044000023C031D08002708093C031D0800A80101
:10045000A701A70A0800B208023C031D3B2A28088E
:10046000033C031D08002708023C031D0800A801E7
:10047000A701A70A0800B208033C031D4B2A28085D
:10048000033C031D08002708013C031D0800A801C8
:10049000A701A70A0800B208043C031D5B2A28082C
:1004A000033C031D08002708023C031D0800A801A7
:1004B000A701A70A0800B208053C031D6B2A2808FB
:1004C000033C031D08002708013C031D0800A80188
:1004D000A701A70A0800B208063C031D7B2A2808CA
:1004E000033C031D08002708023C031D0800A80167
:1004F000A701A70A0800B208073C031D8B2A280899
:10050000033C031D08002708023C031D0800A80146
:10051000A701A70A0800B208083C031D9B2A280867
:10052000033C031D08002708013C031D0800A80127
:10053000A701A70A0800B208093C031DAB2A280836
:10054000033C031D08002708023C031D0800A80106
:10055000A701A70A0800B2080A3C031DBB2A280805
:10056000033C031D08002708013C031D0800A801E7
:10057000A701A70A0800B2080B3C031D08002808C1
:10058000033C031D08002708023C031D0800A801C6
:10059000A701A70AB201080029080A3C031D0800A8
:1005A000A901AA0A08002A08013C031D080029081D
:1005B000033C031D0800AA01A901A90A08000313AE
:1005C00083123308043C031DE62AEA2A031383122C
:1005D000B301EA2A2F08031DF52A21080A128A11FD
:1005E00064200A128A118800782B2F08013C031D11
:1005F000012B22080A128A1164200A128A1188002B
:10060000782B2F08023C031D0D2B24080A128A1197
:1006100064200A128A118800782B2F08033C031DDE
:10062000192B23080A128A1164200A128A118800E1
:10063000782B2F08043C031D252B25080A128A114C
:1006400064200A128A118800782B2F08053C031DAC
:100650008A2926080A128A1164200A128A1188003F
:10066000782B2F08031D3C2B27080A128A116420BF
:100670000A128A118800782B2F08013C031D482B91
:1006800028080A128A1164200A128A118800782B1D
:100690002F08023C031D542B29080A128A116420DA
:1006A0000A128A118800782B2F08033C031D602B47
:1006B0002A080A128A1164200A128A118800782BEB
:1006C0002F08043C031D6C2B00300A128A11642091
:1006D0000A128A118800782B2F08053C031D8A29ED
:1006E00000300A128A1164200A128A118800782BBD
:1006F00021080A3C031D8A29A101A20A7F2B220896
:10070000063C031D8A29A201A40A862B24080A3C60
:10071000031D8A29A401A30A8D2B2308063C031D6F
:100720008A29A301A50A942B25080A3C031D8A29BE
:10073000A501A60A9B2B2608023C031D8A29250831
:10074000043C031D8A29A601A70AA62B27080A3CF8
:10075000031D8A29A701A80AAD2BB208003C031D7E
:10076000BF2B2808033C031D8A292708023C031DD0
:100770008A29A801A701A70AA90AB20A8A29B208E8
:10078000013C031DD12B2808023C031D8A292708A0
:10079000093C031D8A29A801A701A70AA90AB20AD0
:1007A0008A29B208023C031DE32B2808033C031DE1
:1007B0008A292708023C031D8A29A801A701A70A44
:1007C000A90AB20A8A29B208033C031DF52B28089E
:1007D000033C031D8A292708013C031D8A29A8011F
:1007E000A701A70AA90AB20A8A29B208043C031D74
:1007F000072C2808033C031D8A292708023C031DF7
:100800008A29A801A701A70AA90AB20A8A29B20857
:10081000053C031D192C2808033C031D8A292708C1
:10082000013C031D8A29A801A701A70AA90AB20A47
:100830008A29B208063C031D2B2C2808033C031D03
:100840008A292708023C031D8A29A801A701A70AB3
:10085000A90AB20A8A29B208073C031D3D2C2808C0
:10086000033C031D8A292708023C031D8A29A8018D
:10087000A701A70AA90AB20A8A29B208083C031DDF
:100880004F2C2808033C031D8A292708013C031D1F
:100890008A29A801A701A70AA90AB20A8A29B208C7
:1008A000093C031D622C2808033C031D8A292708E4
:1008B000023C031D8A29A801A701A701A70AA90ACA
:1008C000B20A8A29B2080A3C031D742C2808033C8A
:1008D000031D8A292708013C031D8A29A801A701B5
:1008E000A70AA90AB20A8A29B2080B3C031D8A2961
:1008F0002808033C031D8A292708023C031D8A2976
:0C090000A801A701A70AA90AB2018A29D0
:04400E00D420FF3F7C
:00000001FF
