:100000000029B400030EB5000B1D4F280B116430FE
:100010008100A00A0B282F08003C031D1728051497
:1000200085100511851105128512AF0A52282F0877
:10003000013C031D232805108514051185110512A7
:100040008512AF0A52282F08023C031D2F280510E5
:1000500085100515851105128512AF0A52282F0843
:10006000033C031D3B28051085100511851505125D
:100070008512AF0A52282F08043C031D472805109B
:1000800085100511851105168512AF0A5228051035
:1000900085100511851105128516AF0152280B1C1C
:0E00A00052280B10350E8300B40E340E0900EA
:1000C80082073F3406345B344F3466346D347D34F4
:1000D80007347F346F3477347C3439345E34793480
:0200E800713471
:10020000031383160F138F160F120F140313831685
:1002100087018501880106148614061586150313C7
:1002200083161614961416159615031383161514B3
:100230009514151595150317831688018901031365
:10024000831681138112811101158114011003138A
:100250008312870188018501B301B601AF016430C3
:1002600081008B170B118B162F08031D3F292108C6
:100270000A128A1164200A128A11880034292F0870
:10028000013C031D4B2922080A128A1164200A121C
:100290008A11880034292F08023C031D572924089D
:1002A0000A128A1164200A128A11880034292F0840
:1002B000033C031D632923080A128A1164200A12D1
:1002C0008A11880034292F08043C031D6F29250852
:1002D0000A128A1164200A128A11880034292F0810
:1002E000053C031D342926080A128A1164200A12CB
:0602F0008A118800342988
:04400E00D420FF3F7C
:00000001FF
