:060000000A128A1100291A
:10000800B400030EB5000B180E280C181F280B1986
:1000180025285E2803138312061CB30A0B10152823
:100028005E283308023C031D5E28861CA40A861D30
:10003800A50A0B105E280C107C308E00E1308F0072
:10004800A10A03138312DC3081000B11A00A2C28AB
:10005800031383122F08003C031D37280130850045
:10006800AF0A0B105E282F08013C031D4028023000
:100078008500AF0A0B105E282F08023C031D492893
:1000880004308500AF0A0B105E282F08033C031DBF
:10009800522808308500AF0A0B105E282F08043C50
:1000A800031D5B2810308500AF0A0B105E28203036
:1000B8008500AF010000350E8300B40E340E090030
:1000C80082073F3406345B344F3466346D347D34F4
:1000D80007347F346F3477347C3439345E34793480
:0200E800713471
:10020000031383160F138F160F120F140317831681
:10021000880189010313831687018501880106146B
:1002200086140615861506160313831615149514E1
:100230001515951515160313831681138112811157
:10024000011581140110031383128B178B168B1564
:100250000B110B100313831616149614161596150E
:1002600016160313831206080B10031383160C14BF
:10027000031383120C1003138312901610169010A0
:100280001014031383127C308E00E1308F000313AF
:100290008312870188018501B601AF01DC3081003E
:1002A0002C088800A100A200A400A300A500A600BD
:1002B0000F30A105F030A205A20E0F30A405F030DA
:1002C000A305A30E0F30A505F030A605A60E300835
:1002D0008800A700A800A900AA000F30A705F030E9
:1002E000A805A80E0F30A905F030AA05AA0EA70A86
:1002F000A90A7A29031383123308003C031D8229BB
:100300000517C929031383123308013C031D8B29E8
:1003100005138517102A031383123308023C031DAB
:10032000B3299521A121A821C92924080A3C031D2C
:100330000800A401A30A2308063C031D0800A3012A
:10034000080025080A3C031D0800A501A60A0800AC
:100350002608023C031D08002508043C031D080074
:10036000A601A5010800031383123308033C031DF3
:10037000BE29861CA70A861DA90A102A0313831208
:100380003308043C031DC529C92903138312B30193
:10039000C9292F08031DD42921080A128A116420B3
:1003A0000A128A118800572A2F08013C031DE029F0
:1003B00022080A128A1164200A128A118800572A18
:1003C0002F08023C031DEC2924080A128A1164201C
:1003D0000A128A118800572A2F08033C031DF829A6
:1003E00023080A128A1164200A128A118800572AE7
:1003F0002F08043C031D042A25080A128A116420D0
:100400000A128A118800572A2F08053C031D7929F2
:1004100026080A128A1164200A128A118800572AB3
:100420002F08031D1B2A27080A128A1164200A12AA
:100430008A118800572A2F08013C031D272A280803
:100440000A128A1164200A128A118800572A2F087A
:10045000023C031D332A29080A128A1164200A1259
:100460008A118800572A2F08033C031D3F2A2A08B7
:100470000A128A1164200A128A118800572A2F084A
:10048000043C031D4B2A00300A128A1164200A1210
:100490008A118800572A2F08053C031D792900304E
:1004A0000A128A1164200A128A118800572A210828
:1004B0000A3C031D7929A101A20A5E2A2208063CF2
:1004C000031D7929A201A40A652A24080A3C031DF8
:1004D0007929A401A30A6C2A2308063C031D792963
:1004E000A301A50A732A25080A3C031D7929A50141
:1004F000A60A7A2A2608023C031D79292508043C0D
:10050000031D7929A601A70A852A27080A3C031D8D
:100510007929A701A80A8C2AB208003C031D9C2A4D
:100520002808033C031D79292708023C031D79296B
:10053000A801A90AB20A7929B208013C031DAC2A14
:100540002808023C031D79292708093C031D792945
:10055000A801A90AB20A7929B208023C031DBC2AE3
:100560002808033C031D79292708023C031D79292B
:10057000A801A90AB20A7929B208033C031DCC2AB2
:100580002808033C031D79292708013C031D79290C
:10059000A801A90AB20A7929B208043C031DDC2A81
:1005A0002808033C031D79292708023C031D7929EB
:1005B000A801A90AB20A7929B208053C031DEC2A50
:1005C0002808033C031D79292708013C031D7929CC
:1005D000A801A90AB20A7929B208063C031DFC2A1F
:1005E0002808033C031D79292708023C031D7929AB
:1005F000A801A90AB20A7929B208073C031D0C2BED
:100600002808033C031D79292708023C031D79298A
:10061000A801A90AB20A7929B208083C031D9C2A3C
:100620002808033C031D79292708013C031D79296B
:10063000A801A90AB20A7929B208093C031D9C2A1B
:100640002808033C031D79292708023C031D79294A
:10065000A801A90AB20A7929B2080A3C031D9C2AFA
:100660002808033C031D79292708013C031D79292B
:10067000A801A90AB20A7929B2080B3C031D9C2AD9
:100680002808033C031D79292708023C031D79290A
:08069000A801A90AB20A7929A8
:04400E00D420FF3F7C
:00000001FF
