:060000000A128A1100291A
:10000800B500030EB6000B180E280C181E280B1985
:1000180024285D2803138312061CB30A0B10152825
:100028005D28861CB414061D3415861DB415061EDD
:1000380034165D280C107C308E00E1308F00A10A48
:1000480003138312DC3081000B11A00A2B28031341
:1000580083122F08003C031D362801308500AF0AA3
:100068000B105D282F08013C031D3F280230850036
:10007800AF0A0B105D282F08023C031D48280430E6
:100088008500AF0A0B105D282F08033C031D51287B
:1000980008308500AF0A0B105D282F08043C031DAB
:1000A8005A2810308500AF0A0B105D2820308500D3
:0E00B800AF010000360E8300B50E350E0900B4
:1000C80082073F3406345B344F3466346D347D34F4
:1000D80007347F346F3477347C3439345E34793480
:0200E800713471
:10020000031383160F138F160F120F140317831681
:10021000880189010313831687018501880106146B
:1002200086140615861506160313831615149514E1
:100230001515951515160313831681138112811157
:10024000011581140110031383128B178B168B1564
:100250000B110B100313831616149614161596150E
:1002600016160313831206080B10031383160C14BF
:10027000031383120C1003138312901610169010A0
:100280001014031383127C308E00E1308F000313AF
:100290008312870188018501B701AF01DC3081003D
:1002A0002C088800A100A200A400A300A500A600BD
:1002B0000F30A105F030A205A20E0F30A405F030DA
:1002C000A305A30E0F30A505F030A605A60E300835
:1002D0008800A700A800A900AA000F30A705F030E9
:1002E000A805A80E0F30A905F030AA05AA0EA70A86
:1002F000A90A7A29031383123308003C031D8229BB
:100300000517DD29031383123308013C031D8B29D4
:1003100005138517242A031383123308023C031D97
:10032000CB2999219E21A321A821AD21B921C0214A
:10033000DD29B41C0800A40AB4100800341D08000C
:10034000A40334110800B41D0800A50AB411080064
:10035000341E0800A5033412080024080A3C031DBB
:100360000800A401A30A2308063C031D0800A301FA
:10037000080025080A3C031D0800A501A60A08007C
:100380002608023C031D08002508043C031D080044
:10039000A601A5010800031383123308033C031DC3
:1003A000D229242A031383123308043C031DD929BC
:1003B000DD2903138312B301DD292F08031DE8296A
:1003C00021080A128A1164200A128A1188006B2AF5
:1003D0002F08013C031DF42922080A128A11642007
:1003E0000A128A1188006B2A2F08023C031D002A7A
:1003F00024080A128A1164200A128A1188006B2AC2
:100400002F08033C031D0C2A23080A128A116420BA
:100410000A128A1188006B2A2F08043C031D182A2F
:1004200025080A128A1164200A128A1188006B2A90
:100430002F08053C031D792926080A128A11642019
:100440000A128A1188006B2A2F08031D2F2A2708F9
:100450000A128A1164200A128A1188006B2A2F0856
:10046000013C031D3B2A28080A128A1164200A1243
:100470008A1188006B2A2F08023C031D472A29088D
:100480000A128A1164200A128A1188006B2A2F0826
:10049000033C031D532A2A080A128A1164200A12F7
:1004A0008A1188006B2A2F08043C031D5F2A003044
:1004B0000A128A1164200A128A1188006B2A2F08F6
:1004C000053C031D792900300A128A1164200A12A2
:1004D0008A1188006B2A21080A3C031D7929A10191
:1004E000A20A722A2208063C031D7929A201A40A45
:1004F000792A24080A3C031D7929A401A30A802A29
:100500002308063C031D7929A301A50A872A25088B
:100510000A3C031D7929A501A60A8E2A2608023C59
:10052000031D79292508043C031D7929A601A70A82
:10053000992A27080A3C031D7929A701A80AA02A9D
:10054000B208003C031DB02A2808033C031D79298A
:100550002708023C031D7929A801A90AB20A7929B2
:10056000B208013C031DC02A2808023C031D79295A
:100570002708093C031D7929A801A90AB20A79298B
:10058000B208023C031DD02A2808033C031D792928
:100590002708023C031D7929A801A90AB20A792972
:1005A000B208033C031DE02A2808033C031D7929F7
:1005B0002708013C031D7929A801A90AB20A792953
:1005C000B208043C031DF02A2808033C031D7929C6
:1005D0002708023C031D7929A801A90AB20A792932
:1005E000B208053C031D002B2808033C031D792994
:1005F0002708013C031D7929A801A90AB20A792913
:10060000B208063C031D102B2808033C031D792962
:100610002708023C031D7929A801A90AB20A7929F1
:10062000B208073C031D202B2808033C031D792931
:100630002708023C031D7929A801A90AB20A7929D1
:10064000B208083C031DB02A2808033C031D792981
:100650002708013C031D7929A801A90AB20A7929B2
:10066000B208093C031DB02A2808033C031D792960
:100670002708023C031D7929A801A90AB20A792991
:10068000B2080A3C031DB02A2808033C031D79293F
:100690002708013C031D7929A801A90AB20A792972
:1006A000B2080B3C031DB02A2808033C031D79291E
:1006B0002708023C031D7929A801A90AB20A792951
:04400E00D420FF3F7C
:00000001FF
