:020000000029D5
:10000800B400030EB5000C1C0F280C107C308E00B9
:10001800E1308F00A10A0B1D5A280B11C83081004E
:10002800A00A16282F08003C031D22280514851055
:100038000511851105128512AF0A5D282F08013CAC
:10004800031D2E280510851405118511051285122A
:10005800AF0A5D282F08023C031D3A2805108510B9
:100068000515851105128512AF0A5D282F08033C76
:10007800031D4628051085100511851505128512E2
:10008800AF0A5D282F08043C031D5228051085106F
:100098000511851105168512AF0A5D280510851012
:1000A8000511851105128516AF015D280B1C5D2809
:0C00B8000B10350E8300B40E340E09004E
:1000C80082073F3406345B344F3466346D347D34F4
:1000D80007347F346F3477347C3439345E34793480
:0200E800713471
:10020000031383160F138F160F120F140317831681
:10021000880189010313831687018501880106146B
:100220008614061586150313831681138112811116
:10023000011581140110031383128B158B170B11F9
:100240008B160B1003138316161496141615961599
:10025000031383161514951415159515031383169A
:100260000C14031383120C10031383129016101630
:1002700090101014031383127C308E00E1308F0035
:1002800003138312870188018501B301B601AF0111
:10029000C83081004B292F08031D562921080A1256
:1002A0008A1164200A128A1188004A292F08013C09
:1002B000031D622922080A128A1164200A128A1177
:1002C00088004A292F08023C031D6E2924080A12BF
:1002D0008A1164200A128A1188004A292F08033CD7
:1002E000031D7A2923080A128A1164200A128A112E
:1002F00088004A292F08043C031D862925080A1274
:100300008A1164200A128A1188004A292F08053CA4
:10031000031D4A2926080A128A1164200A128A112A
:0403200088004A29DE
:04400E00D420FF3F7C
:00000001FF
