:060000000A128A1100291A
:10000800B400030EB5000B180E280C181F280B1986
:1000180025285E2803138312061CB30A0B10152823
:100028005E283308023C031D5E28861CA40A861D30
:10003800A50A0B105E280C107C308E00E1308F0072
:10004800A10A03138312DC3081000B11A00A2C28AB
:10005800031383122F08003C031D37280130850045
:10006800AF0A0B105E282F08013C031D4028023000
:100078008500AF0A0B105E282F08023C031D492893
:1000880004308500AF0A0B105E282F08033C031DBF
:10009800522808308500AF0A0B105E282F08043C50
:1000A800031D5B2810308500AF0A0B105E28203036
:1000B8008500AF010000350E8300B40E340E090030
:1000C80082073F3406345B344F3466346D347D34F4
:1000D80007347F346F3477347C3439345E34793480
:0200E800713471
:10020000031383160F138F160F120F140317831681
:10021000880189010313831687018501880106146B
:1002200086140615861506160313831615149514E1
:100230001515951515160313831681138112811157
:10024000011581140110031383128B178B168B1564
:100250000B110B100313831616149614161596150E
:1002600016160313831206080B10031383160C14BF
:10027000031383120C1003138312901610169010A0
:100280001014031383127C308E00E1308F000313AF
:100290008312870188018501B601AF01DC3081003E
:1002A0002C088800A100A200A400A300A500A600BD
:1002B0000F30A105F030A205A20E0F30A405F030DA
:1002C000A305A30E0F30A505F030A605A60E300835
:1002D0008800A700A800A900AA000F30A705F030E9
:1002E000A805A80E0F30A905F030AA05AA0EA70A86
:1002F000A90A7A29031383123308003C031D8229BB
:100300000517AF29031383123308013C031D8B2902
:1003100005138517F629031383123308023C031DC6
:100320009D2924080A3C031DAF29A401A30A230820
:10033000063C031DAF29A301AF2903138312330821
:10034000033C031DA429AF29031383123308043C83
:10035000031DAB29AF2903138312B301AF292F0863
:10036000031DBA2921080A128A1164200A128A116F
:1003700088003D2A2F08013C031DC62922080A12C5
:100380008A1164200A128A1188003D2A2F08023C33
:10039000031DD22924080A128A1164200A128A1124
:1003A00088003D2A2F08033C031DDE2923080A127A
:1003B0008A1164200A128A1188003D2A2F08043C01
:1003C000031DEA2925080A128A1164200A128A11DB
:1003D00088003D2A2F08053C031D792926080A12AA
:1003E0008A1164200A128A1188003D2A2F08031DF1
:1003F000012A27080A128A1164200A128A11880029
:100400003D2A2F08013C031D0D2A28080A128A11D3
:1004100064200A128A1188003D2A2F08023C031D1D
:10042000192A29080A128A1164200A128A118800DE
:100430003D2A2F08033C031D252A2A080A128A1187
:1004400064200A128A1188003D2A2F08043C031DEB
:10045000312A00300A128A1164200A128A11880097
:100460003D2A2F08053C031D792900300A128A1104
:1004700064200A128A1188003D2A21080A3C031DC3
:100480007929A101A20A442A2208063C031D7929E0
:10049000A201A40A4B2A24080A3C031D7929A401BD
:1004A000A30A522A2308063C031D7929A301A50AA1
:1004B000592A25080A3C031D7929A501A60A602AA4
:1004C0002608023C031D79292508043C031D7929CF
:1004D000A601A70A6B2A27080A3C031D7929A70150
:1004E000A80A722AB208003C031D822A2808033C8D
:1004F000031D79292708023C031D7929A801A90AAF
:10050000B20A7929B208013C031D922A2808023C4C
:10051000031D79292708093C031D7929A801A90A87
:10052000B20A7929B208023C031DA22A2808033C1A
:10053000031D79292708023C031D7929A801A90A6E
:10054000B20A7929B208033C031DB22A2808033CE9
:10055000031D79292708013C031D7929A801A90A4F
:10056000B20A7929B208043C031DC22A2808033CB8
:10057000031D79292708023C031D7929A801A90A2E
:10058000B20A7929B208053C031DD22A2808033C87
:10059000031D79292708013C031D7929A801A90A0F
:1005A000B20A7929B208063C031DE22A2808033C56
:1005B000031D79292708023C031D7929A801A90AEE
:1005C000B20A7929B208073C031DF22A2808033C25
:1005D000031D79292708023C031D7929A801A90ACE
:1005E000B20A7929B208083C031D822A2808033C74
:1005F000031D79292708013C031D7929A801A90AAF
:10060000B20A7929B208093C031D822A2808033C52
:10061000031D79292708023C031D7929A801A90A8D
:10062000B20A7929B2080A3C031D822A2808033C31
:10063000031D79292708013C031D7929A801A90A6E
:10064000B20A7929B2080B3C031D822A2808033C10
:10065000031D79292708023C031D7929A801A90A4D
:04066000B20A792938
:04400E00D420FF3F7C
:00000001FF
